{"abi":[{"type":"constructor","inputs":[],"stateMutability":"nonpayable"},{"type":"function","name":"getRoundData","inputs":[{"name":"_roundId","type":"uint80","internalType":"uint80"}],"outputs":[{"name":"roundId","type":"uint80","internalType":"uint80"},{"name":"answer","type":"int256","internalType":"int256"},{"name":"startedAt","type":"uint256","internalType":"uint256"},{"name":"updatedAt","type":"uint256","internalType":"uint256"},{"name":"answeredInRound","type":"uint80","internalType":"uint80"}],"stateMutability":"view"},{"type":"function","name":"latestRoundData","inputs":[],"outputs":[{"name":"roundId","type":"uint80","internalType":"uint80"},{"name":"answer","type":"int256","internalType":"int256"},{"name":"startedAt","type":"uint256","internalType":"uint256"},{"name":"updatedAt","type":"uint256","internalType":"uint256"},{"name":"answeredInRound","type":"uint80","internalType":"uint80"}],"stateMutability":"view"},{"type":"function","name":"updatePrice","inputs":[],"outputs":[],"stateMutability":"nonpayable"}],"bytecode":{"object":"0x608060405234801561000f575f5ffd5b505f6040518060a00160405280600169ffffffffffffffffffff1681526020016450539a3a008152602001610e1042610048919061017c565b8152602001428152602001600169ffffffffffffffffffff1681525090508060015f600169ffffffffffffffffffff1669ffffffffffffffffffff1681526020019081526020015f205f820151815f015f6101000a81548169ffffffffffffffffffff021916908369ffffffffffffffffffff1602179055506020820151816001015560408201518160020155606082015181600301556080820151816004015f6101000a81548169ffffffffffffffffffff021916908369ffffffffffffffffffff16021790555090505060015f5f6101000a81548169ffffffffffffffffffff021916908369ffffffffffffffffffff160217905550506101af565b5f819050919050565b7f4e487b71000000000000000000000000000000000000000000000000000000005f52601160045260245ffd5b5f61018682610146565b915061019183610146565b92508282039050818111156101a9576101a861014f565b5b92915050565b610959806101bc5f395ff3fe608060405234801561000f575f5ffd5b506004361061003f575f3560e01c8063673a7e28146100435780639a6fc8f51461004d578063feaf968c14610081575b5f5ffd5b61004b6100a3565b005b610067600480360381019061006291906105d9565b61034b565b604051610078959493929190610643565b60405180910390f35b61008961048f565b60405161009a959493929190610643565b60405180910390f35b5f5f81819054906101000a900469ffffffffffffffffffff16809291906100c9906106c1565b91906101000a81548169ffffffffffffffffffff021916908369ffffffffffffffffffff160217905550505f60015f60015f5f9054906101000a900469ffffffffffffffffffff1661011b91906106f2565b69ffffffffffffffffffff1669ffffffffffffffffffff1681526020019081526020015f206001015490505f64012a05f200424460405160200161016092919061074f565b604051602081830303815290604052805190602001205f1c61018291906107a7565b90505f60024260405160200161019891906107d7565b604051602081830303815290604052805190602001205f1c6101ba91906107a7565b036101cc57806101c9906107f1565b90505b5f81836101d99190610837565b9050644cd58864008112156101f157644cd588640090505b6453d1ac1000811315610207576453d1ac100090505b5f6040518060a001604052805f5f9054906101000a900469ffffffffffffffffffff1669ffffffffffffffffffff168152602001838152602001610e104261024f9190610878565b81526020014281526020015f5f9054906101000a900469ffffffffffffffffffff1669ffffffffffffffffffff1681525090508060015f5f5f9054906101000a900469ffffffffffffffffffff1669ffffffffffffffffffff1669ffffffffffffffffffff1681526020019081526020015f205f820151815f015f6101000a81548169ffffffffffffffffffff021916908369ffffffffffffffffffff1602179055506020820151816001015560408201518160020155606082015181600301556080820151816004015f6101000a81548169ffffffffffffffffffff021916908369ffffffffffffffffffff16021790555090505050505050565b5f5f5f5f5f5f60015f8869ffffffffffffffffffff1669ffffffffffffffffffff1681526020019081526020015f206040518060a00160405290815f82015f9054906101000a900469ffffffffffffffffffff1669ffffffffffffffffffff1669ffffffffffffffffffff168152602001600182015481526020016002820154815260200160038201548152602001600482015f9054906101000a900469ffffffffffffffffffff1669ffffffffffffffffffff1669ffffffffffffffffffff168152505090505f815f015169ffffffffffffffffffff1603610463576040517f08c379a000000000000000000000000000000000000000000000000000000000815260040161045a90610905565b60405180910390fd5b805f01518160200151826040015183606001518460800151955095509550955095505091939590929450565b5f5f5f5f5f5f60015f5f5f9054906101000a900469ffffffffffffffffffff1669ffffffffffffffffffff1669ffffffffffffffffffff1681526020019081526020015f206040518060a00160405290815f82015f9054906101000a900469ffffffffffffffffffff1669ffffffffffffffffffff1669ffffffffffffffffffff168152602001600182015481526020016002820154815260200160038201548152602001600482015f9054906101000a900469ffffffffffffffffffff1669ffffffffffffffffffff1669ffffffffffffffffffff16815250509050805f0151816020015182604001518360600151846080015195509550955095509550509091929394565b5f5ffd5b5f69ffffffffffffffffffff82169050919050565b6105b88161059a565b81146105c2575f5ffd5b50565b5f813590506105d3816105af565b92915050565b5f602082840312156105ee576105ed610596565b5b5f6105fb848285016105c5565b91505092915050565b61060d8161059a565b82525050565b5f819050919050565b61062581610613565b82525050565b5f819050919050565b61063d8161062b565b82525050565b5f60a0820190506106565f830188610604565b610663602083018761061c565b6106706040830186610634565b61067d6060830185610634565b61068a6080830184610604565b9695505050505050565b7f4e487b71000000000000000000000000000000000000000000000000000000005f52601160045260245ffd5b5f6106cb8261059a565b915069ffffffffffffffffffff82036106e7576106e6610694565b5b600182019050919050565b5f6106fc8261059a565b91506107078361059a565b9250828203905069ffffffffffffffffffff81111561072957610728610694565b5b92915050565b5f819050919050565b6107496107448261062b565b61072f565b82525050565b5f61075a8285610738565b60208201915061076a8284610738565b6020820191508190509392505050565b7f4e487b71000000000000000000000000000000000000000000000000000000005f52601260045260245ffd5b5f6107b18261062b565b91506107bc8361062b565b9250826107cc576107cb61077a565b5b828206905092915050565b5f6107e28284610738565b60208201915081905092915050565b5f6107fb82610613565b91507f8000000000000000000000000000000000000000000000000000000000000000820361082d5761082c610694565b5b815f039050919050565b5f61084182610613565b915061084c83610613565b92508282019050828112155f8312168382125f84121516171561087257610871610694565b5b92915050565b5f6108828261062b565b915061088d8361062b565b92508282039050818111156108a5576108a4610694565b5b92915050565b5f82825260208201905092915050565b7f526f756e64206e6f7420666f756e6400000000000000000000000000000000005f82015250565b5f6108ef600f836108ab565b91506108fa826108bb565b602082019050919050565b5f6020820190508181035f83015261091c816108e3565b905091905056fea2646970667358221220189a2001ef917a93d37b4c79ccb9abb5d2278fb12f399a26b51cdfb6aca7dddc64736f6c634300081c0033","linkReferences":{}},"methodIdentifiers":{"getRoundData(uint80)":"9a6fc8f5","latestRoundData()":"feaf968c","updatePrice()":"673a7e28"},"id":0}